:0400000026EF06F0F1
:08000800046ED8CF05F0E0CF33
:1000100006F00001E9CF0CF0EACF07F0E1CF08F0DD
:10002000E2CF09F0D9CF0AF0DACF0BF0F3CF12F01C
:10003000F4CF13F0FACF14F0F5CF15F0F6CF16F099
:10004000F7CF17F000C00EF001C00FF002C010F0A3
:1000500003C011F09DA030EF00F09EB057EF00F00C
:100060000EC000F00FC001F010C002F011C003F08C
:100070000CC0E9FF07C0EAFF078E08C0E1FF09C016
:10008000E2FF0AC0D9FF0BC0DAFF12C0F3FF13C0B2
:10009000F4FF14C0FAFF15C0F5FF16C0F6FF17C035
:1000A000F7FF045006C0E0FF05C0D8FF1000332A58
:1000B000D8B4342A3550335C04E13650345C01E165
:1000C0003780CF6ACE6A9E9030EF00F0346A336A90
:1000D00039C036F038C035F03790370ECD6E9A6A99
:1000E000CF6ACE6A9D80C00EF21280EF06F0EA6AF7
:1000F0004A0EE96EEF500DE0020E016E006A002E0E
:10010000FED7012EFBD7970E006E002EFED7EF2EE6
:10011000F3D71200396A3850395C0FE28A88640ECE
:100120004A6EE5DF8A98640E4A6EE1DF8A88640EC3
:100130004A6EDDDF8A98392AEED789EF06F04B2C1C
:1001400019D04C6A4C50070815E39294899400D05A
:1001500000D0D8904A3202E2899401D089849294E6
:10016000270E006E002EFED700D0928400D000D063
:100170004C2AE8D74B50020819E14C6A4C5007084A
:1001800015E39296899600D000D0D8904A3202E2C8
:10019000899601D089869296270E006E002EFED792
:1001A00000D0928600D000D04C2AE8D71200090E69
:1001B0004C5E0BE3EA6A4C0EE96ED890EF32EF50DA
:1001C00004E001D00000EF2EFDD712004A2C12D01F
:1001D00092948994020E4B6EF80E4C6EE8DF4B2E13
:1001E000FBD79284020E4B6EF80E4C6EE0DF4B2E66
:1001F000FBD792844A50020812E192968996020E29
:100200004B6EF80E4C6ED3DF4B2EFBD79286020E50
:100210004B6EF80E4C6ECBDF4B2EFBD79286120046
:10022000CC0E4A6E38C04BF08ADF4E0E4A6E38C094
:100230004BF085DF7D0E4A6E38C04BF080DFC90E73
:100240004A6E38C04BF07BDF7F0E4A6E38C04BF0F1
:1002500076DF38C04AF0BADFCC0E4A6E38C04BF0B9
:100260006EDF480E4A6E38C04BF069DF0F0E4A6EE3
:100270003EDF1200016A026A006A036A435002E12B
:10028000425018E0100E446ED89040364136003689
:1002900003364350035C02E14250005C07E34250E6
:1002A000005ED8A003064350035ED88001360236B4
:1002B000442EEAD78AEF01F03E6A3D6A3F6A3F501A
:1002C000090818E33C34006E0036FC0E0016C250DC
:1002D000C30B0010C26E010E4A6E09DFC282C2B2A9
:1002E000FED7C282C2B2FED7C3503D26C4503E22C2
:1002F0003F2AE5D73D5206E13E5204E13E6A010E37
:100300003D6E0CD03EC041F03DC040F0436A0A0E45
:10031000426EB0D702C03EF001C03DF03DC001F0DA
:100320003EC002F066EF03F08E0E006E3DC001F09D
:100330003CC002F0036A015209E102C001F0026A06
:10034000080E005E015202E1006A08D0D89001BE9A
:1003500004D0023601360006F9D7019E6DEF03F096
:100360003C50D8B471D0006E4050D8B46DD0002647
:1003700004E3810E002668E204D07F0E005E64E391
:1003800063E03DC044F04150441A3D8E418E3F50E1
:100390004302F4CF46F03E504202F4CF03F0F3CFD5
:1003A00045F04302F3504626F4504522000E032246
:1003B0003F504202F3504626F4504522000E026A96
:1003C000032202223D504302F3504526F4500322FB
:1003D000000E02223D504202F3500326F450022246
:1003E000000E016A01223F504102F3504526F450AD
:1003F0000322000E022201223E504102F350032646
:10040000F4500222000E01223D504102F350022618
:10041000F4500122002A01BE05D0453603360236CB
:1004200001360006000E45AE0AD0032A0222012240
:10043000015005E1025003E1035001E1002A44BEEE
:10044000018E44AE019E04D0006A016A026A036A0A
:100450007EEF03F0800ED8B2471A4C6A4D6A43C053
:100460004BF047504B1A4250D8B4DCD04A6E006E65
:100470004650D8B4E0D04A5ED8B481D03DE347C0FE
:1004800050F0508E48C04FF049C04EF04D6AD890A1
:1004900050324F324E324D324A2EF8D74BAE03D047
:1004A0004C80DDD04C904A904C88EA6A450EE96E4B
:1004B000E9D04C984BBE0AD04AA013D050324F32EC
:1004C0004E324D32002AD8B4C5D00BD050BE0CD01D
:1004D000D8904D364E364F3650360006D8B4BAD086
:1004E000F5D74C8C6BD04C9C43C04BF043AE02D044
:1004F000508EA9D0509EA7D046C04AF046C000F00A
:1005000042504A5E43C050F0508E44C04FF045C048
:100510004EF04D6AD89050324F324E324D324A2E04
:10052000F8D74BAE03D04C829AD04C924A904C8A6A
:10053000EA6A490EE96EA6D04C9A4BBE0AD04AA090
:1005400013D050324F324E324D32002AD8B482D0BE
:100550000BD050BE0CD0D8904D364E364F3650365C
:100560000006D8B477D0F5D74C8E28D04C9E47C023
:100570004BF047AE02D0508E66D0509E64D047C03C
:1005800050F0508E48C04FF049C04EF04BAE04D0F2
:10059000509E4C8464D04C944D6A4A90EA6A450E51
:1005A000E96E70D04BBE1CD043C04BF04AA006D0C1
:1005B00050324F324E324D32002A4CE04DAE0BD00D
:1005C0004E2A09E14F2A07E1502A05E150324F3205
:1005D0004E32002A3FE04CBC86D74CBEC7D71CD059
:1005E000800E501A50AE04D03AD047C04BF00AD01B
:1005F00043C04BF0505206E14F5204E14E5202E12B
:10060000006A21D050BE08D0D8904D364E364F36B5
:100610005036002EF7D71ED04BAE02D0508E13D0DE
:10062000509E11D046C000F047C050F048C04FF077
:1006300049C04EF008D042C000F043C050F044C062
:100640004FF045C04EF050C001F04FC002F04EC018
:1006500003F034D0006A016A026A036A2FD04D6A3F
:100660004E1E4F1E501E4D1E4D2A05E14E2A03E11F
:100670004F2A01E1502A4CB015D74CB256D74CB492
:100680008AD7B3D7EF504E2605E34F2A03E1502A0D
:10069000D8B44A80ED52EF504F2603E3502AD8B425
:1006A0004A80ED52EF50EFBE01D0800A5026D8B0FC
:1006B0004A804CB8FED64CBA3FD774D712003B6A7A
:1006C0003A6A396A386A010E3C6EF6D502C003F008
:1006D00001C03CF002C03DF027D62E0E3F6E900EBA
:1006E0003E6E200E3D6E780E3C6E03C043F002C09D
:1006F00042F001C041F000C040F032D603C03FF0EC
:1007000002C03EF001C03DF000C03CF0EACF41F035
:10071000E9CF40F0D89203C045F002C044F001C0D8
:1007200043F000C042F0496A486A200E476E810ECD
:10073000466E90DE41C0EAFF40C0E9FF03C03BF0D7
:1007400002C03AF001C039F000C038F038C000F003
:1007500039C001F03AC002F03BC003F012004A2C4D
:100760001BD04B6A4B50070817E39294899400D032
:1007700000D09284050E006E002EFED7928480B4C5
:1007800002D0D89001D0D8804C324F0E006E002E8F
:10079000FED700D04B2AE6D74A5002081BE14B6A2D
:1007A0004B50070817E39296899600D000D09286A6
:1007B000050E006E002EFED7928680B602D0D8902D
:1007C00001D0D8804C324F0E006E002EFED700D0E4
:1007D0004B2AE6D74CC001F012008E0E006E4BC0C3
:1007E00001F04AC002F0036A4BAE05D0011E021EA2
:1007F000022A01E1012A015209E102C001F0026A64
:10080000080E005E015202E1006A0AD0D89001BED3
:1008100004D0023601360006F9D74BBE01D0019E46
:100820000CEF05F04E50D8B4A5D05A6E5250D8B443
:10083000A1D05A5E05E37F0E5A26D8B09BD006D0D1
:10084000810E5A5ED8A096D0D8B494D05AC000F089
:10085000016A026A036A596A4FC058F0588E50C044
:1008600057F051C056F0190E5A6E5550565E0DE2B3
:10087000010E575E0AE2585E08E2595E06E2592A06
:10088000582A572A5550562628D05450575E12E2FF
:10089000010E585E0FE2595E0DE2592A582A545053
:1008A00057265550562619E3572A17E1582A15E1BD
:1008B000592A13D053508009585E0EE2010E595E3A
:1008C0000BE2592A53508009582654505726E9E321
:1008D000582AE7E1592AE5D703805A2E01D00BD0D8
:1008E000D8905636573658365936D8900336023691
:1008F00001365B36BAD75BA006D0D89001320232FF
:1009000003325B3202D0000635E05BBE1ED0D890C9
:1009100056365736583659365550565E07E2010E50
:10092000575E04E2585E02E2595E1AE35450575E85
:1009300005E2010E585E02E2595E12E3535080094F
:10094000585E03E2010E595E0BE3032A09E1022A15
:1009500007E1012A05E1002A0DE0013202320332EB
:100960004FC05AF053505A1A5AAE02D0018E06D0D8
:10097000019E04D0006A016A026A036A1200416A99
:100980003DC04AF023DCCC0E4A6E3DC04BF09FECDC
:1009900000F0440E4A6E3DC04BF09FEC00F0C80ED4
:1009A0004A6E77EC00F0415206E13DC04AF0D7DED6
:1009B00001C041F0F8D73DC04AF008DCCC0E4A6EC9
:1009C0003DC04BF09FEC00F0BE0E4A6E3DC04BF0B8
:1009D0009FEC00F03DC04AF0C2DE01C042F03DC0D5
:1009E0004AF0BDDE01C043F03DC04AF0B8DE01C0B0
:1009F0003EF03DC04AF0B3DE01C03FF03DC04AF0DA
:100A0000AEDE01C040F043C045F042C044F045C0F6
:100A10004BF044C04AF0E1D603C04DF002C04CF0A8
:100A200001C04BF000C04AF003C051F002C050F0CA
:100A300001C04FF000C04EF0556A546A536A830EED
:100A4000526EF0DE03C049F002C048F001C047F02A
:100A500000C046F0C80E4A6E77EC00F046C000F0C9
:100A600047C001F048C002F049C003F012003EC088
:100A700045F04250451A45AE05D0D894D8903EBEB8
:100A8000D8802FD03EC045F041C046F03D50465E74
:100A900006E045AE26D0D850010AD86E22D042C01A
:100AA00046F03E50465E06E045AE1BD0D850010AE7
:100AB000D86E17D043C046F03F50465E06E045AEC4
:100AC00010D0D850010AD86E0CD044C046F0405027
:100AD000465E06E045AE05D0D850010AD86E01D07A
:100AE000D89012003B6A3A6A396A386A3C6A3C50CC
:100AF000040827E3010E3D6E42DFEACF3EF0E9CF66
:100B00003DF0D8923BC045F03AC044F039C043F0C4
:100B100038C042F003C049F002C048F001C047F0BD
:100B200000C046F097DC3EC0EAFF3DC0E9FF03C0CD
:100B30003BF002C03AF001C039F000C038F03C2A66
:100B4000D6D73BC051F03AC050F039C04FF038C052
:100B50004EF0556A546A200E536E810E526E62DE5C
:100B600003C03BF002C03AF001C039F000C038F0D9
:100B70003BC040F03AC03FF039C03EF038C03DF0D5
:100B8000446A436A426A416A72DF08E322C03BF06A
:100B900021C03AF020C039F01FC038F038C000F052
:100BA00039C001F03AC002F03BC003F012003B6ACA
:100BB0003A6A396A386A3C6A3C50040827E3020EF4
:100BC0003D6EDDDEEACF3EF0E9CF3DF0D8923BC08E
:100BD00045F03AC044F039C043F038C042F003C099
:100BE00049F002C048F001C047F000C046F032DCD6
:100BF0003EC0EAFF3DC0E9FF03C03BF002C03AF04F
:100C000001C039F000C038F03C2AD6D73BC051F0C3
:100C10003AC050F039C04FF038C04EF0556A546AAF
:100C2000200E536E810E526EFDDD03C03BF002C0FC
:100C30003AF001C039F000C038F038C000F039C0D7
:100C400001F03AC002F03BC003F01200F86AD09EF7
:100C5000078E9B6A700ED36ED350196A1A901A824F
:100C6000CD0E1E6ECC0E1D6E4C0E1C6E7B0E1B6EC2
:100C7000226A216A206A1F6A266A256A246A236A10
:100C80002A6A296A286A276A2E6A2D6A2C6A2B6AC0
:100C9000326A316A306A2F6AFF0E0F01486FC29CB8
:100CA000C29E4951E00B1F09496FD26AD16A8B6A13
:100CB0000F01498765968B86030E946E9B6AFB0E27
:100CC000D36EFD0E486F9F0E496FFD0E486FC29C9C
:100CD000C29E4951E00B1F09496FC150C00B030967
:100CE000C16EC18EC280C18CC282C2B2FED7C19C0D
:100CF0009D90010E396EA40E386E000166EF00F073
:100D0000000E936E030E946E8A908A92386E8AEF6C
:100D100000F08A98010E386E10EC01F0020E386E69
:100D200010EC01F0CCDC03C032F002C031F001C0A5
:100D300030F000C02FF0D6DE03C022F002C021F058
:100D400001C020F000C01FF032DF03C026F002C057
:100D500025F001C024F000C023F082B223D027DFA9
:100D600003C026F002C025F001C024F000C023F02B
:100D7000320E4A6E77EC00F026C040F025C03FF0FE
:100D800024C03EF023C03DF0446A436A426A800EAC
:100D9000416E6DDE05E38A88196A1A901A8202D0C4
:100DA0008A981A9282A20AD0320E4A6E77EC00F02C
:100DB00082A204D01A82196A1A908A981AB2CFD0E5
:100DC00037A00DD03790346A336A1AB004D0020EBF
:100DD000196E1A8004D01950010801E3192A1AA0CB
:100DE000BBD06DDC03C032F002C031F001C030F086
:100DF00000C02FF077DE03C022F002C021F001C056
:100E000020F000C01FF032C040F031C03FF030C0D1
:100E10003EF02FC03DF01EC044F01DC043F01CC08A
:100E200042F01BC041F023DE38E032C01EF031C07A
:100E30001DF030C01CF02FC01BF0D88232C045F02E
:100E400031C044F030C043F02FC042F0496A486AD4
:100E5000476A7E0E466E2AEC02F003C02AF002C0FA
:100E600029F001C028F000C027F0D89232C045F028
:100E700031C044F030C043F02FC042F0496A486AA4
:100E8000476A7E0E466E2AEC02F003C02EF002C0C6
:100E90002DF001C02CF000C02BF02EC040F02DC072
:100EA0003FF02CC03EF02BC03DF022C044F021C0EA
:100EB00043F020C042F01FC041F0D9DD01E20AE159
:100EC000040E386EFA0E4A6E77EC00F0382EFAD720
:100ED0008A801CD022C040F021C03FF020C03EF0EC
:100EE0001FC03DF02AC044F029C043F028C042F0A2
:100EF00027C041F0BCDD01E209E1040E386EFA0EB4
:100F00004A6E77EC00F0382EFAD78A9082B013D070
:100F1000320E4A6E77EC00F082B00CD01950020805
:100F200009E18A82240E386EFA0E4A6E77EC00F0E0
:100F3000382EFAD710D0320E4A6E77EC00F082A02D
:100F40000AD0196A8A92240E386EFA0E4A6E77EC2D
:100F500000F0382EFAD702D08A928A9002D08A9274
:060F60008A90FBD603009D
:08FFF800ACF3D8FFFFF97FF123
:00000001FF
;PIC18F26J50
;CRC=0691  CREATED="07-nov-19 15:44"
